{"abi":[{"type":"constructor","inputs":[{"name":"_attestorAddress","type":"address","internalType":"address"}],"stateMutability":"nonpayable"},{"type":"function","name":"attestorAddress","inputs":[],"outputs":[{"name":"","type":"address","internalType":"address"}],"stateMutability":"view"},{"type":"function","name":"claimCountBySubmitter","inputs":[{"name":"submitter","type":"address","internalType":"address"}],"outputs":[{"name":"","type":"uint256","internalType":"uint256"}],"stateMutability":"view"},{"type":"function","name":"claimDigest","inputs":[{"name":"usageHash","type":"bytes32","internalType":"bytes32"},{"name":"modelHash","type":"bytes32","internalType":"bytes32"},{"name":"promptHash","type":"bytes32","internalType":"bytes32"},{"name":"responseHash","type":"bytes32","internalType":"bytes32"},{"name":"endpoint","type":"string","internalType":"string"},{"name":"timestamp","type":"uint256","internalType":"uint256"}],"outputs":[{"name":"","type":"bytes32","internalType":"bytes32"}],"stateMutability":"view"},{"type":"function","name":"claimIds","inputs":[{"name":"","type":"uint256","internalType":"uint256"}],"outputs":[{"name":"","type":"bytes32","internalType":"bytes32"}],"stateMutability":"view"},{"type":"function","name":"claims","inputs":[{"name":"","type":"bytes32","internalType":"bytes32"}],"outputs":[{"name":"usageHash","type":"bytes32","internalType":"bytes32"},{"name":"modelHash","type":"bytes32","internalType":"bytes32"},{"name":"promptHash","type":"bytes32","internalType":"bytes32"},{"name":"responseHash","type":"bytes32","internalType":"bytes32"},{"name":"endpoint","type":"string","internalType":"string"},{"name":"timestamp","type":"uint256","internalType":"uint256"},{"name":"submitter","type":"address","internalType":"address"},{"name":"blockNumber","type":"uint256","internalType":"uint256"}],"stateMutability":"view"},{"type":"function","name":"claimsBySubmitter","inputs":[{"name":"","type":"address","internalType":"address"},{"name":"","type":"uint256","internalType":"uint256"}],"outputs":[{"name":"","type":"bytes32","internalType":"bytes32"}],"stateMutability":"view"},{"type":"function","name":"domainSeparator","inputs":[],"outputs":[{"name":"","type":"bytes32","internalType":"bytes32"}],"stateMutability":"view"},{"type":"function","name":"getClaim","inputs":[{"name":"claimId","type":"bytes32","internalType":"bytes32"}],"outputs":[{"name":"","type":"tuple","internalType":"struct ClaimVerifier.StoredClaim","components":[{"name":"usageHash","type":"bytes32","internalType":"bytes32"},{"name":"modelHash","type":"bytes32","internalType":"bytes32"},{"name":"promptHash","type":"bytes32","internalType":"bytes32"},{"name":"responseHash","type":"bytes32","internalType":"bytes32"},{"name":"endpoint","type":"string","internalType":"string"},{"name":"timestamp","type":"uint256","internalType":"uint256"},{"name":"submitter","type":"address","internalType":"address"},{"name":"blockNumber","type":"uint256","internalType":"uint256"}]}],"stateMutability":"view"},{"type":"function","name":"owner","inputs":[],"outputs":[{"name":"","type":"address","internalType":"address"}],"stateMutability":"view"},{"type":"function","name":"setAttestor","inputs":[{"name":"newAttestor","type":"address","internalType":"address"}],"outputs":[],"stateMutability":"nonpayable"},{"type":"function","name":"setOwner","inputs":[{"name":"newOwner","type":"address","internalType":"address"}],"outputs":[],"stateMutability":"nonpayable"},{"type":"function","name":"submitClaim","inputs":[{"name":"usageHash","type":"bytes32","internalType":"bytes32"},{"name":"modelHash","type":"bytes32","internalType":"bytes32"},{"name":"promptHash","type":"bytes32","internalType":"bytes32"},{"name":"responseHash","type":"bytes32","internalType":"bytes32"},{"name":"endpoint","type":"string","internalType":"string"},{"name":"timestamp","type":"uint256","internalType":"uint256"},{"name":"signature","type":"bytes","internalType":"bytes"}],"outputs":[{"name":"claimId","type":"bytes32","internalType":"bytes32"}],"stateMutability":"nonpayable"},{"type":"function","name":"totalClaims","inputs":[],"outputs":[{"name":"","type":"uint256","internalType":"uint256"}],"stateMutability":"view"},{"type":"function","name":"verifyClaim","inputs":[{"name":"usageHash","type":"bytes32","internalType":"bytes32"},{"name":"modelHash","type":"bytes32","internalType":"bytes32"},{"name":"promptHash","type":"bytes32","internalType":"bytes32"},{"name":"responseHash","type":"bytes32","internalType":"bytes32"},{"name":"endpoint","type":"string","internalType":"string"},{"name":"timestamp","type":"uint256","internalType":"uint256"},{"name":"signature","type":"bytes","internalType":"bytes"}],"outputs":[{"name":"valid","type":"bool","internalType":"bool"},{"name":"signer","type":"address","internalType":"address"}],"stateMutability":"view"},{"type":"event","name":"AttestorUpdated","inputs":[{"name":"oldAttestor","type":"address","indexed":true,"internalType":"address"},{"name":"newAttestor","type":"address","indexed":true,"internalType":"address"}],"anonymous":false},{"type":"event","name":"ClaimVerified","inputs":[{"name":"claimId","type":"bytes32","indexed":true,"internalType":"bytes32"},{"name":"submitter","type":"address","indexed":true,"internalType":"address"},{"name":"usageHash","type":"bytes32","indexed":false,"internalType":"bytes32"},{"name":"modelHash","type":"bytes32","indexed":false,"internalType":"bytes32"},{"name":"timestamp","type":"uint256","indexed":false,"internalType":"uint256"}],"anonymous":false},{"type":"event","name":"OwnerUpdated","inputs":[{"name":"oldOwner","type":"address","indexed":true,"internalType":"address"},{"name":"newOwner","type":"address","indexed":true,"internalType":"address"}],"anonymous":false},{"type":"error","name":"ClaimAlreadyExists","inputs":[]},{"type":"error","name":"ClaimNotFound","inputs":[]},{"type":"error","name":"InvalidSignature","inputs":[]},{"type":"error","name":"NotOwner","inputs":[]},{"type":"error","name":"ZeroAddress","inputs":[]}],"bytecode":{"object":"0x6080806040523461014657602081610f41803803809161001f828561014a565b83398101031261014657516001600160a01b03811690819003610146578015610137573360018060a01b03195f5416175f5560018060a01b031960015416176001554660035560405161007360408261014a565b600d81526c21b630b4b6ab32b934b334b2b960991b602090910152604080517f6196f32be0b85e9442000986e1988d8506042767f024fa604f62015ad55b987c916100be908261014a565b600181526020810190603160f81b82525190206040519060208201927f8b73c3c69bb8fe3d512ecc4cf759cc79239f7b179b0ffacaa9a75d522b39400f8452604083015260608201524660808201523060a082015260a0815261012260c08261014a565b519020600255604051610dbf90816101828239f35b63d92e233d60e01b5f5260045ffd5b5f80fd5b601f909101601f19168101906001600160401b0382119082101761016d57604052565b634e487b7160e01b5f52604160045260245ffdfe60806040526004361015610011575f80fd5b5f3560e01c806313af40351461090857806319ca2ec4146108b057806325401d8e1461084257806332361eb51461081a57806341c61383146107fd5780636a42e085146107c55780638da5cb5b1461079e578063982a0a7e14610446578063c9100bcb146102f9578063e44297c31461028b578063ed0503701461020b578063eff0f59214610173578063f5770b1f146100d95763f698da25146100b3575f80fd5b346100d5575f3660031901126100d55760206100cd610c0c565b604051908152f35b5f80fd5b346100d55760203660031901126100d5576100f261097d565b5f546001600160a01b03163303610164576001600160a01b0316801561015557600180546001600160a01b0319811683179091556001600160a01b03167fb2609665f07e4b0d216ff87ff7103a8dc4adbf90f137d3a26b1560da2b8fb7d65f80a3005b63d92e233d60e01b5f5260045ffd5b6330cd747160e01b5f5260045ffd5b346100d55760203660031901126100d5576004355f52600460205260405f20805460018201549160028101546003820154916101f76101b460048301610ad8565b600583015494600760018060a01b036006860154169401549460405198899889526020890152604088015260608701526101006080870152610100860190610a3d565b9260a085015260c084015260e08301520390f35b346100d55760c03660031901126100d55760843567ffffffffffffffff81116100d5576100cd61024b61024460209336906004016109a8565b3691610b78565b828151910120604051610283816102758682019460a435906064356044356024356004358a610bbe565b03601f198101835282610ab6565b519020610cb5565b346100d55760406102da6102836102bd6102d56102756102aa366109d6565b9b9695979894929a9193909a3691610b78565b60208151910120908c5196879560208701998a610bbe565b610ce8565b60015482516001600160a01b0392831691909216811482526020820152f35b346100d55760203660031901126100d5576004355f60e060405161031c81610a99565b828152826020820152826040820152826060820152606060808201528260a08201528260c08201520152805f526004602052600560405f20015415610437575f52600460205260405f2060405161037281610a99565b8154815260018201549160208201928352600281015460408301908152600382015491606084019283526104166103ab60048301610ad8565b6080860190815260058301549460a08701958652600760018060a01b036006860154169460c0890195865201549460e0880195865260405198899860208a525160208a01525160408901525160608801525160808701525161010060a0870152610120860190610a3d565b925160c0850152516001600160a01b031660e0840152516101008301520390f35b63022af77760e11b5f5260045ffd5b346100d557610454366109d6565b969795919490610465368587610b78565b6020815191012060405160208101918983528b604083015285606083015284608083015260a08201528760c082015260c081526104a360e082610ab6565b51902097885f526004602052600560405f20015461078f576104f1916102d589866102838e6102758d6104d88e8e3691610b78565b602081519101208b60405196879560208701998a610bbe565b6001546001600160a01b03908116911603610780576105366040519461051686610a99565b87865260208601948a865260408701948552606087019384523691610b78565b6080850190815260a085019186835260c086019333855260e08701954387528a5f52600460205260405f209751885551600188015551600287015551600386015560048501905180519067ffffffffffffffff82116106b3576105998354610a61565b601f811161073b575b50602090601f83116001146106d25760079695949392915f91836106c7575b50508160011b915f199060031b1c19161790555b516005850155600684019060018060a01b039051166bffffffffffffffffffffffff60a01b82541617905551910155600554600160401b8110156106b35761063f6106298260018794016005556005610993565b819391549060031b91821b915f19901b19161790565b9055335f52600660205260405f2093845494600160401b8610156106b357610673610629878793600160209a018155610993565b9055604051928352848301526040820152817ff8d6cb3be71b87db4397a2bb558b54cf76b035ff94b9a188490850f7bc49b0f860603393a3604051908152f35b634e487b7160e01b5f52604160045260245ffd5b015190508c806105c1565b90601f19831691845f52815f20925f5b818110610723575091600193918560079a99989796941061070b575b505050811b0190556105d5565b01515f1960f88460031b161c191690558c80806106fe565b929360206001819287860151815501950193016106e2565b835f5260205f20601f840160051c81019160208510610776575b601f0160051c01905b81811061076b57506105a2565b5f815560010161075e565b9091508190610755565b638baa579f60e01b5f5260045ffd5b6380497e3b60e01b5f5260045ffd5b346100d5575f3660031901126100d5575f546040516001600160a01b039091168152602090f35b346100d55760203660031901126100d5576001600160a01b036107e661097d565b165f526006602052602060405f2054604051908152f35b346100d5575f3660031901126100d5576020600554604051908152f35b346100d5575f3660031901126100d5576001546040516001600160a01b039091168152602090f35b346100d55760203660031901126100d5576004356005548110156100d55760055481101561089c5760055f527f036b6384b5eca791c62761152d0c79bb0604c104a5fb6f4eb0703f3154bb3db00154604051908152602090f35b634e487b7160e01b5f52603260045260245ffd5b346100d55760403660031901126100d5576108c961097d565b6001600160a01b03165f908152600660205260409020805460243591908210156100d5576020916108f991610993565b90549060031b1c604051908152f35b346100d55760203660031901126100d55761092161097d565b5f54906001600160a01b0382169033829003610164576001600160a01b0316918215610155576001600160a01b03191682175f9081557f8292fce18fa69edf4db7b94ea2e58241df0ae57f97e0a6c9b29067028bf92d769080a3005b600435906001600160a01b03821682036100d557565b805482101561089c575f5260205f2001905f90565b9181601f840112156100d55782359167ffffffffffffffff83116100d557602083818601950101116100d557565b9060e06003198301126100d5576004359160243591604435916064359160843567ffffffffffffffff81116100d55782610a12916004016109a8565b9290929160a4359160c4359067ffffffffffffffff82116100d557610a39916004016109a8565b9091565b805180835260209291819084018484015e5f828201840152601f01601f1916010190565b90600182811c92168015610a8f575b6020831014610a7b57565b634e487b7160e01b5f52602260045260245ffd5b91607f1691610a70565b610100810190811067ffffffffffffffff8211176106b357604052565b90601f8019910116810190811067ffffffffffffffff8211176106b357604052565b9060405191825f825492610aeb84610a61565b8084529360018116908115610b565750600114610b12575b50610b1092500383610ab6565b565b90505f9291925260205f20905f915b818310610b3a575050906020610b10928201015f610b03565b6020919350806001915483858901015201910190918492610b21565b905060209250610b1094915060ff191682840152151560051b8201015f610b03565b92919267ffffffffffffffff82116106b35760405191610ba2601f8201601f191660200184610ab6565b8294818452818301116100d5578281602093845f960137010152565b9260c094919796959260e08501987f5bd3c0ad51713d68553a51aeadaf5c46f76927886fe1c8bfcdf0110521a29b3e8652602086015260408501526060840152608083015260a08201520152565b6003544614610caf576040600d60208251610c278482610ab6565b828152016c21b630b4b6ab32b934b334b2b960991b815220600160208351610c4f8582610ab6565b82815201603160f81b81522082519160208301937f8b73c3c69bb8fe3d512ecc4cf759cc79239f7b179b0ffacaa9a75d522b39400f855283015260608201524660808201523060a082015260a08152610ca960c082610ab6565b51902090565b60025490565b610cbd610c0c565b9060405190602082019261190160f01b84526022830152604282015260428152610ca9606282610ab6565b9160401901610d835760408101355f1a601b8110610d63575b60ff1690601b82141580610d58575b610d5157602092836080925f9460405193845282840152803560408401520135606082015282805260015afa15610d46575f5190565b6040513d5f823e3d90fd5b5050505f90565b50601c821415610d10565b601b0160ff811115610d0157634e487b7160e01b5f52601160045260245ffd5b50505f9056fea26469706673582212201eea01b42ac9005fd34b38fbef77e66e6ad3db9ddfedb1e047a9980e2377f19364736f6c634300081c0033","linkReferences":{}},"methodIdentifiers":{"attestorAddress()":"32361eb5","claimCountBySubmitter(address)":"6a42e085","claimDigest(bytes32,bytes32,bytes32,bytes32,string,uint256)":"ed050370","claimIds(uint256)":"25401d8e","claims(bytes32)":"eff0f592","claimsBySubmitter(address,uint256)":"19ca2ec4","domainSeparator()":"f698da25","getClaim(bytes32)":"c9100bcb","owner()":"8da5cb5b","setAttestor(address)":"f5770b1f","setOwner(address)":"13af4035","submitClaim(bytes32,bytes32,bytes32,bytes32,string,uint256,bytes)":"982a0a7e","totalClaims()":"41c61383","verifyClaim(bytes32,bytes32,bytes32,bytes32,string,uint256,bytes)":"e44297c3"},"id":0}