{"abi":[{"type":"constructor","inputs":[{"name":"_attestorAddress","type":"address","internalType":"address"}],"stateMutability":"nonpayable"},{"type":"function","name":"attestorAddress","inputs":[],"outputs":[{"name":"","type":"address","internalType":"address"}],"stateMutability":"view"},{"type":"function","name":"claimCountBySubmitter","inputs":[{"name":"submitter","type":"address","internalType":"address"}],"outputs":[{"name":"","type":"uint256","internalType":"uint256"}],"stateMutability":"view"},{"type":"function","name":"claimDigest","inputs":[{"name":"usageHash","type":"bytes32","internalType":"bytes32"},{"name":"modelHash","type":"bytes32","internalType":"bytes32"},{"name":"promptHash","type":"bytes32","internalType":"bytes32"},{"name":"responseHash","type":"bytes32","internalType":"bytes32"},{"name":"endpoint","type":"string","internalType":"string"},{"name":"timestamp","type":"uint256","internalType":"uint256"}],"outputs":[{"name":"","type":"bytes32","internalType":"bytes32"}],"stateMutability":"view"},{"type":"function","name":"claimIds","inputs":[{"name":"","type":"uint256","internalType":"uint256"}],"outputs":[{"name":"","type":"bytes32","internalType":"bytes32"}],"stateMutability":"view"},{"type":"function","name":"claims","inputs":[{"name":"","type":"bytes32","internalType":"bytes32"}],"outputs":[{"name":"usageHash","type":"bytes32","internalType":"bytes32"},{"name":"modelHash","type":"bytes32","internalType":"bytes32"},{"name":"promptHash","type":"bytes32","internalType":"bytes32"},{"name":"responseHash","type":"bytes32","internalType":"bytes32"},{"name":"endpoint","type":"string","internalType":"string"},{"name":"timestamp","type":"uint256","internalType":"uint256"},{"name":"submitter","type":"address","internalType":"address"},{"name":"blockNumber","type":"uint256","internalType":"uint256"}],"stateMutability":"view"},{"type":"function","name":"claimsBySubmitter","inputs":[{"name":"","type":"address","internalType":"address"},{"name":"","type":"uint256","internalType":"uint256"}],"outputs":[{"name":"","type":"bytes32","internalType":"bytes32"}],"stateMutability":"view"},{"type":"function","name":"domainSeparator","inputs":[],"outputs":[{"name":"","type":"bytes32","internalType":"bytes32"}],"stateMutability":"view"},{"type":"function","name":"getClaim","inputs":[{"name":"claimId","type":"bytes32","internalType":"bytes32"}],"outputs":[{"name":"","type":"tuple","internalType":"struct ClaimVerifier.StoredClaim","components":[{"name":"usageHash","type":"bytes32","internalType":"bytes32"},{"name":"modelHash","type":"bytes32","internalType":"bytes32"},{"name":"promptHash","type":"bytes32","internalType":"bytes32"},{"name":"responseHash","type":"bytes32","internalType":"bytes32"},{"name":"endpoint","type":"string","internalType":"string"},{"name":"timestamp","type":"uint256","internalType":"uint256"},{"name":"submitter","type":"address","internalType":"address"},{"name":"blockNumber","type":"uint256","internalType":"uint256"}]}],"stateMutability":"view"},{"type":"function","name":"owner","inputs":[],"outputs":[{"name":"","type":"address","internalType":"address"}],"stateMutability":"view"},{"type":"function","name":"setAttestor","inputs":[{"name":"newAttestor","type":"address","internalType":"address"}],"outputs":[],"stateMutability":"nonpayable"},{"type":"function","name":"setOwner","inputs":[{"name":"newOwner","type":"address","internalType":"address"}],"outputs":[],"stateMutability":"nonpayable"},{"type":"function","name":"submitClaim","inputs":[{"name":"usageHash","type":"bytes32","internalType":"bytes32"},{"name":"modelHash","type":"bytes32","internalType":"bytes32"},{"name":"promptHash","type":"bytes32","internalType":"bytes32"},{"name":"responseHash","type":"bytes32","internalType":"bytes32"},{"name":"endpoint","type":"string","internalType":"string"},{"name":"timestamp","type":"uint256","internalType":"uint256"},{"name":"signature","type":"bytes","internalType":"bytes"}],"outputs":[{"name":"claimId","type":"bytes32","internalType":"bytes32"}],"stateMutability":"nonpayable"},{"type":"function","name":"totalClaims","inputs":[],"outputs":[{"name":"","type":"uint256","internalType":"uint256"}],"stateMutability":"view"},{"type":"function","name":"verifyClaim","inputs":[{"name":"usageHash","type":"bytes32","internalType":"bytes32"},{"name":"modelHash","type":"bytes32","internalType":"bytes32"},{"name":"promptHash","type":"bytes32","internalType":"bytes32"},{"name":"responseHash","type":"bytes32","internalType":"bytes32"},{"name":"endpoint","type":"string","internalType":"string"},{"name":"timestamp","type":"uint256","internalType":"uint256"},{"name":"signature","type":"bytes","internalType":"bytes"}],"outputs":[{"name":"valid","type":"bool","internalType":"bool"},{"name":"signer","type":"address","internalType":"address"}],"stateMutability":"view"},{"type":"event","name":"AttestorUpdated","inputs":[{"name":"oldAttestor","type":"address","indexed":true,"internalType":"address"},{"name":"newAttestor","type":"address","indexed":true,"internalType":"address"}],"anonymous":false},{"type":"event","name":"ClaimVerified","inputs":[{"name":"claimId","type":"bytes32","indexed":true,"internalType":"bytes32"},{"name":"submitter","type":"address","indexed":true,"internalType":"address"},{"name":"usageHash","type":"bytes32","indexed":false,"internalType":"bytes32"},{"name":"modelHash","type":"bytes32","indexed":false,"internalType":"bytes32"},{"name":"timestamp","type":"uint256","indexed":false,"internalType":"uint256"}],"anonymous":false},{"type":"event","name":"OwnerUpdated","inputs":[{"name":"oldOwner","type":"address","indexed":true,"internalType":"address"},{"name":"newOwner","type":"address","indexed":true,"internalType":"address"}],"anonymous":false},{"type":"error","name":"ClaimAlreadyExists","inputs":[]},{"type":"error","name":"ClaimNotFound","inputs":[]},{"type":"error","name":"InvalidSignature","inputs":[]},{"type":"error","name":"NotOwner","inputs":[]},{"type":"error","name":"ZeroAddress","inputs":[]}],"bytecode":{"object":"0x608060405234801561000f575f5ffd5b5060405161218e38038061218e83398181016040528101906100319190610261565b5f73ffffffffffffffffffffffffffffffffffffffff168173ffffffffffffffffffffffffffffffffffffffff1603610096576040517fd92e233d00000000000000000000000000000000000000000000000000000000815260040160405180910390fd5b335f5f6101000a81548173ffffffffffffffffffffffffffffffffffffffff021916908373ffffffffffffffffffffffffffffffffffffffff1602179055508060015f6101000a81548173ffffffffffffffffffffffffffffffffffffffff021916908373ffffffffffffffffffffffffffffffffffffffff1602179055504660038190555061012a61013660201b60201c565b6002819055505061031c565b5f7f8b73c3c69bb8fe3d512ecc4cf759cc79239f7b179b0ffacaa9a75d522b39400f6040518060400160405280600d81526020017f436c61696d566572696669657200000000000000000000000000000000000000815250805190602001206040518060400160405280600181526020017f31000000000000000000000000000000000000000000000000000000000000008152508051906020012046306040516020016101e89594939291906102cb565b60405160208183030381529060405280519060200120905090565b5f5ffd5b5f73ffffffffffffffffffffffffffffffffffffffff82169050919050565b5f61023082610207565b9050919050565b61024081610226565b811461024a575f5ffd5b50565b5f8151905061025b81610237565b92915050565b5f6020828403121561027657610275610203565b5b5f6102838482850161024d565b91505092915050565b5f819050919050565b61029e8161028c565b82525050565b5f819050919050565b6102b6816102a4565b82525050565b6102c581610226565b82525050565b5f60a0820190506102de5f830188610295565b6102eb6020830187610295565b6102f86040830186610295565b61030560608301856102ad565b61031260808301846102bc565b9695505050505050565b611e65806103295f395ff3fe608060405234801561000f575f5ffd5b50600436106100e8575f3560e01c8063982a0a7e1161008a578063ed05037011610064578063ed05037014610283578063eff0f592146102b3578063f5770b1f146102ea578063f698da2514610306576100e8565b8063982a0a7e146101f2578063c9100bcb14610222578063e44297c314610252576100e8565b806332361eb5116100c657806332361eb51461016857806341c61383146101865780636a42e085146101a45780638da5cb5b146101d4576100e8565b806313af4035146100ec57806319ca2ec41461010857806325401d8e14610138575b5f5ffd5b610106600480360381019061010191906111c7565b610324565b005b610122600480360381019061011d9190611225565b6104cf565b60405161012f919061127b565b60405180910390f35b610152600480360381019061014d9190611294565b6104fa565b60405161015f919061127b565b60405180910390f35b61017061051a565b60405161017d91906112ce565b60405180910390f35b61018e61053f565b60405161019b91906112f6565b60405180910390f35b6101be60048036038101906101b991906111c7565b61054b565b6040516101cb91906112f6565b60405180910390f35b6101dc610594565b6040516101e991906112ce565b60405180910390f35b61020c600480360381019061020791906113ef565b6105b8565b604051610219919061127b565b60405180910390f35b61023c600480360381019061023791906114cb565b610984565b6040516102499190611640565b60405180910390f35b61026c600480360381019061026791906113ef565b610b1d565b60405161027a92919061167a565b60405180910390f35b61029d600480360381019061029891906116a1565b610c07565b6040516102aa919061127b565b60405180910390f35b6102cd60048036038101906102c891906114cb565b610c8c565b6040516102e1989796959493929190611793565b60405180910390f35b61030460048036038101906102ff91906111c7565b610d75565b005b61030e610f22565b60405161031b919061127b565b60405180910390f35b5f5f9054906101000a900473ffffffffffffffffffffffffffffffffffffffff1673ffffffffffffffffffffffffffffffffffffffff163373ffffffffffffffffffffffffffffffffffffffff16146103a9576040517f30cd747100000000000000000000000000000000000000000000000000000000815260040160405180910390fd5b5f73ffffffffffffffffffffffffffffffffffffffff168173ffffffffffffffffffffffffffffffffffffffff160361040e576040517fd92e233d00000000000000000000000000000000000000000000000000000000815260040160405180910390fd5b5f5f5f9054906101000a900473ffffffffffffffffffffffffffffffffffffffff169050815f5f6101000a81548173ffffffffffffffffffffffffffffffffffffffff021916908373ffffffffffffffffffffffffffffffffffffffff1602179055508173ffffffffffffffffffffffffffffffffffffffff168173ffffffffffffffffffffffffffffffffffffffff167f8292fce18fa69edf4db7b94ea2e58241df0ae57f97e0a6c9b29067028bf92d7660405160405180910390a35050565b6006602052815f5260405f2081815481106104e8575f80fd5b905f5260205f20015f91509150505481565b60058181548110610509575f80fd5b905f5260205f20015f915090505481565b60015f9054906101000a900473ffffffffffffffffffffffffffffffffffffffff1681565b5f600580549050905090565b5f60065f8373ffffffffffffffffffffffffffffffffffffffff1673ffffffffffffffffffffffffffffffffffffffff1681526020019081526020015f20805490509050919050565b5f5f9054906101000a900473ffffffffffffffffffffffffffffffffffffffff1681565b5f8989898989896040516105cd929190611852565b6040518091039020886040516020016105eb9695949392919061186a565b6040516020818303038152906040528051906020012090505f60045f8381526020019081526020015f206005015414610650576040517f80497e3b00000000000000000000000000000000000000000000000000000000815260040160405180910390fd5b5f7f5bd3c0ad51713d68553a51aeadaf5c46f76927886fe1c8bfcdf0110521a29b3e8b8b8b8b8b8b604051610686929190611852565b60405180910390208a6040516020016106a597969594939291906118c9565b6040516020818303038152906040528051906020012090505f6106c782610f44565b90505f6106d5828787610f7c565b905060015f9054906101000a900473ffffffffffffffffffffffffffffffffffffffff1673ffffffffffffffffffffffffffffffffffffffff168173ffffffffffffffffffffffffffffffffffffffff161461075d576040517f8baa579f00000000000000000000000000000000000000000000000000000000815260040160405180910390fd5b6040518061010001604052808e81526020018d81526020018c81526020018b81526020018a8a8080601f0160208091040260200160405190810160405280939291908181526020018383808284375f81840152601f19601f8201169050808301925050505050505081526020018881526020013373ffffffffffffffffffffffffffffffffffffffff1681526020014381525060045f8681526020019081526020015f205f820151815f0155602082015181600101556040820151816002015560608201518160030155608082015181600401908161083c9190611b71565b5060a0820151816005015560c0820151816006015f6101000a81548173ffffffffffffffffffffffffffffffffffffffff021916908373ffffffffffffffffffffffffffffffffffffffff16021790555060e08201518160070155905050600584908060018154018082558091505060019003905f5260205f20015f909190919091505560065f3373ffffffffffffffffffffffffffffffffffffffff1673ffffffffffffffffffffffffffffffffffffffff1681526020019081526020015f2084908060018154018082558091505060019003905f5260205f20015f90919091909150553373ffffffffffffffffffffffffffffffffffffffff16847ff8d6cb3be71b87db4397a2bb558b54cf76b035ff94b9a188490850f7bc49b0f88f8f8b60405161096c93929190611c40565b60405180910390a35050509998505050505050505050565b61098c611111565b5f60045f8481526020019081526020015f2060050154036109d9576040517f0455eeee00000000000000000000000000000000000000000000000000000000815260040160405180910390fd5b60045f8381526020019081526020015f20604051806101000160405290815f8201548152602001600182015481526020016002820154815260200160038201548152602001600482018054610a2d90611990565b80601f0160208091040260200160405190810160405280929190818152602001828054610a5990611990565b8015610aa45780601f10610a7b57610100808354040283529160200191610aa4565b820191905f5260205f20905b815481529060010190602001808311610a8757829003601f168201915b5050505050815260200160058201548152602001600682015f9054906101000a900473ffffffffffffffffffffffffffffffffffffffff1673ffffffffffffffffffffffffffffffffffffffff1673ffffffffffffffffffffffffffffffffffffffff1681526020016007820154815250509050919050565b5f5f5f7f5bd3c0ad51713d68553a51aeadaf5c46f76927886fe1c8bfcdf0110521a29b3e8c8c8c8c8c8c604051610b55929190611852565b60405180910390208b604051602001610b7497969594939291906118c9565b6040516020818303038152906040528051906020012090505f610b9682610f44565b9050610ba3818787610f7c565b925060015f9054906101000a900473ffffffffffffffffffffffffffffffffffffffff1673ffffffffffffffffffffffffffffffffffffffff168373ffffffffffffffffffffffffffffffffffffffff161493505050995099975050505050505050565b5f5f7f5bd3c0ad51713d68553a51aeadaf5c46f76927886fe1c8bfcdf0110521a29b3e898989898989604051610c3e929190611852565b604051809103902088604051602001610c5d97969594939291906118c9565b604051602081830303815290604052805190602001209050610c7e81610f44565b915050979650505050505050565b6004602052805f5260405f205f91509050805f015490806001015490806002015490806003015490806004018054610cc390611990565b80601f0160208091040260200160405190810160405280929190818152602001828054610cef90611990565b8015610d3a5780601f10610d1157610100808354040283529160200191610d3a565b820191905f5260205f20905b815481529060010190602001808311610d1d57829003601f168201915b505050505090806005015490806006015f9054906101000a900473ffffffffffffffffffffffffffffffffffffffff16908060070154905088565b5f5f9054906101000a900473ffffffffffffffffffffffffffffffffffffffff1673ffffffffffffffffffffffffffffffffffffffff163373ffffffffffffffffffffffffffffffffffffffff1614610dfa576040517f30cd747100000000000000000000000000000000000000000000000000000000815260040160405180910390fd5b5f73ffffffffffffffffffffffffffffffffffffffff168173ffffffffffffffffffffffffffffffffffffffff1603610e5f576040517fd92e233d00000000000000000000000000000000000000000000000000000000815260040160405180910390fd5b5f60015f9054906101000a900473ffffffffffffffffffffffffffffffffffffffff1690508160015f6101000a81548173ffffffffffffffffffffffffffffffffffffffff021916908373ffffffffffffffffffffffffffffffffffffffff1602179055508173ffffffffffffffffffffffffffffffffffffffff168173ffffffffffffffffffffffffffffffffffffffff167fb2609665f07e4b0d216ff87ff7103a8dc4adbf90f137d3a26b1560da2b8fb7d660405160405180910390a35050565b5f6003544603610f36576002549050610f41565b610f3e611044565b90505b90565b5f610f4d610f22565b82604051602001610f5f929190611ce9565b604051602081830303815290604052805190602001209050919050565b5f60418383905014610f90575f905061103d565b5f5f5f853592506020860135915060408601355f1a9050601b8160ff161015610fc357601b81610fc09190611d58565b90505b601b8160ff1614158015610fdb5750601c8160ff1614155b15610feb575f935050505061103d565b6001878285856040515f815260200160405260405161100d9493929190611d9b565b6020604051602081039080840390855afa15801561102d573d5f5f3e3d5ffd5b5050506020604051035193505050505b9392505050565b5f7f8b73c3c69bb8fe3d512ecc4cf759cc79239f7b179b0ffacaa9a75d522b39400f6040518060400160405280600d81526020017f436c61696d566572696669657200000000000000000000000000000000000000815250805190602001206040518060400160405280600181526020017f31000000000000000000000000000000000000000000000000000000000000008152508051906020012046306040516020016110f6959493929190611dde565b60405160208183030381529060405280519060200120905090565b6040518061010001604052805f81526020015f81526020015f81526020015f8152602001606081526020015f81526020015f73ffffffffffffffffffffffffffffffffffffffff1681526020015f81525090565b5f5ffd5b5f5ffd5b5f73ffffffffffffffffffffffffffffffffffffffff82169050919050565b5f6111968261116d565b9050919050565b6111a68161118c565b81146111b0575f5ffd5b50565b5f813590506111c18161119d565b92915050565b5f602082840312156111dc576111db611165565b5b5f6111e9848285016111b3565b91505092915050565b5f819050919050565b611204816111f2565b811461120e575f5ffd5b50565b5f8135905061121f816111fb565b92915050565b5f5f6040838503121561123b5761123a611165565b5b5f611248858286016111b3565b925050602061125985828601611211565b9150509250929050565b5f819050919050565b61127581611263565b82525050565b5f60208201905061128e5f83018461126c565b92915050565b5f602082840312156112a9576112a8611165565b5b5f6112b684828501611211565b91505092915050565b6112c88161118c565b82525050565b5f6020820190506112e15f8301846112bf565b92915050565b6112f0816111f2565b82525050565b5f6020820190506113095f8301846112e7565b92915050565b61131881611263565b8114611322575f5ffd5b50565b5f813590506113338161130f565b92915050565b5f5ffd5b5f5ffd5b5f5ffd5b5f5f83601f84011261135a57611359611339565b5b8235905067ffffffffffffffff8111156113775761137661133d565b5b60208301915083600182028301111561139357611392611341565b5b9250929050565b5f5f83601f8401126113af576113ae611339565b5b8235905067ffffffffffffffff8111156113cc576113cb61133d565b5b6020830191508360018202830111156113e8576113e7611341565b5b9250929050565b5f5f5f5f5f5f5f5f5f60e08a8c03121561140c5761140b611165565b5b5f6114198c828d01611325565b995050602061142a8c828d01611325565b985050604061143b8c828d01611325565b975050606061144c8c828d01611325565b96505060808a013567ffffffffffffffff81111561146d5761146c611169565b5b6114798c828d01611345565b955095505060a061148c8c828d01611211565b93505060c08a013567ffffffffffffffff8111156114ad576114ac611169565b5b6114b98c828d0161139a565b92509250509295985092959850929598565b5f602082840312156114e0576114df611165565b5b5f6114ed84828501611325565b91505092915050565b6114ff81611263565b82525050565b5f81519050919050565b5f82825260208201905092915050565b8281835e5f83830152505050565b5f601f19601f8301169050919050565b5f61154782611505565b611551818561150f565b935061156181856020860161151f565b61156a8161152d565b840191505092915050565b61157e816111f2565b82525050565b61158d8161118c565b82525050565b5f61010083015f8301516115a95f8601826114f6565b5060208301516115bc60208601826114f6565b5060408301516115cf60408601826114f6565b5060608301516115e260608601826114f6565b50608083015184820360808601526115fa828261153d565b91505060a083015161160f60a0860182611575565b5060c083015161162260c0860182611584565b5060e083015161163560e0860182611575565b508091505092915050565b5f6020820190508181035f8301526116588184611593565b905092915050565b5f8115159050919050565b61167481611660565b82525050565b5f60408201905061168d5f83018561166b565b61169a60208301846112bf565b9392505050565b5f5f5f5f5f5f5f60c0888a0312156116bc576116bb611165565b5b5f6116c98a828b01611325565b97505060206116da8a828b01611325565b96505060406116eb8a828b01611325565b95505060606116fc8a828b01611325565b945050608088013567ffffffffffffffff81111561171d5761171c611169565b5b6117298a828b01611345565b935093505060a061173c8a828b01611211565b91505092959891949750929550565b5f82825260208201905092915050565b5f61176582611505565b61176f818561174b565b935061177f81856020860161151f565b6117888161152d565b840191505092915050565b5f610100820190506117a75f83018b61126c565b6117b4602083018a61126c565b6117c1604083018961126c565b6117ce606083018861126c565b81810360808301526117e0818761175b565b90506117ef60a08301866112e7565b6117fc60c08301856112bf565b61180960e08301846112e7565b9998505050505050505050565b5f81905092915050565b828183375f83830152505050565b5f6118398385611816565b9350611846838584611820565b82840190509392505050565b5f61185e82848661182e565b91508190509392505050565b5f60c08201905061187d5f83018961126c565b61188a602083018861126c565b611897604083018761126c565b6118a4606083018661126c565b6118b1608083018561126c565b6118be60a08301846112e7565b979650505050505050565b5f60e0820190506118dc5f83018a61126c565b6118e9602083018961126c565b6118f6604083018861126c565b611903606083018761126c565b611910608083018661126c565b61191d60a083018561126c565b61192a60c08301846112e7565b98975050505050505050565b7f4e487b71000000000000000000000000000000000000000000000000000000005f52604160045260245ffd5b7f4e487b71000000000000000000000000000000000000000000000000000000005f52602260045260245ffd5b5f60028204905060018216806119a757607f821691505b6020821081036119ba576119b9611963565b5b50919050565b5f819050815f5260205f209050919050565b5f6020601f8301049050919050565b5f82821b905092915050565b5f60088302611a1c7fffffffffffffffffffffffffffffffffffffffffffffffffffffffffffffffff826119e1565b611a2686836119e1565b95508019841693508086168417925050509392505050565b5f819050919050565b5f611a61611a5c611a57846111f2565b611a3e565b6111f2565b9050919050565b5f819050919050565b611a7a83611a47565b611a8e611a8682611a68565b8484546119ed565b825550505050565b5f5f905090565b611aa5611a96565b611ab0818484611a71565b505050565b5f5b82811015611ad657611acb5f828401611a9d565b600181019050611ab7565b505050565b601f821115611b295782821115611b2857611af5816119c0565b611afe836119d2565b611b07856119d2565b6020861015611b14575f90505b808301611b2382840382611ab5565b505050505b5b505050565b5f82821c905092915050565b5f611b495f1984600802611b2e565b1980831691505092915050565b5f611b618383611b3a565b9150826002028217905092915050565b611b7a82611505565b67ffffffffffffffff811115611b9357611b92611936565b5b611b9d8254611990565b611ba8828285611adb565b5f60209050601f831160018114611bd9575f8415611bc7578287015190505b611bd18582611b56565b865550611c38565b601f198416611be7866119c0565b5f5b82811015611c0e57848901518255600182019150602085019450602081019050611be9565b86831015611c2b5784890151611c27601f891682611b3a565b8355505b6001600288020188555050505b505050505050565b5f606082019050611c535f83018661126c565b611c60602083018561126c565b611c6d60408301846112e7565b949350505050565b5f81905092915050565b7f19010000000000000000000000000000000000000000000000000000000000005f82015250565b5f611cb3600283611c75565b9150611cbe82611c7f565b600282019050919050565b5f819050919050565b611ce3611cde82611263565b611cc9565b82525050565b5f611cf382611ca7565b9150611cff8285611cd2565b602082019150611d0f8284611cd2565b6020820191508190509392505050565b5f60ff82169050919050565b7f4e487b71000000000000000000000000000000000000000000000000000000005f52601160045260245ffd5b5f611d6282611d1f565b9150611d6d83611d1f565b9250828201905060ff811115611d8657611d85611d2b565b5b92915050565b611d9581611d1f565b82525050565b5f608082019050611dae5f83018761126c565b611dbb6020830186611d8c565b611dc8604083018561126c565b611dd5606083018461126c565b95945050505050565b5f60a082019050611df15f83018861126c565b611dfe602083018761126c565b611e0b604083018661126c565b611e1860608301856112e7565b611e2560808301846112bf565b969550505050505056fea26469706673582212202aa1950d9c6eb1d7f1e1d03be5d571f38c02312dc602628e268c4739b00cf58e64736f6c63430008210033","linkReferences":{}},"methodIdentifiers":{"attestorAddress()":"32361eb5","claimCountBySubmitter(address)":"6a42e085","claimDigest(bytes32,bytes32,bytes32,bytes32,string,uint256)":"ed050370","claimIds(uint256)":"25401d8e","claims(bytes32)":"eff0f592","claimsBySubmitter(address,uint256)":"19ca2ec4","domainSeparator()":"f698da25","getClaim(bytes32)":"c9100bcb","owner()":"8da5cb5b","setAttestor(address)":"f5770b1f","setOwner(address)":"13af4035","submitClaim(bytes32,bytes32,bytes32,bytes32,string,uint256,bytes)":"982a0a7e","totalClaims()":"41c61383","verifyClaim(bytes32,bytes32,bytes32,bytes32,string,uint256,bytes)":"e44297c3"},"id":0}